:100000000C94A7000C94C4000C94C4000C94C4007D
:100010000C94C4000C94C4000C94C4000C94C40050
:100020000C94C1040C94E8040C94C4000C94C40017
:100030000C94C4000C94C4000C94C4000C94C40030
:100040000C94C4000C94C4000C94C4000C94C40020
:100050000C94C40000407A10F35A00A0724E1809A4
:100060000010A5D4E80000E87648170000E40B541F
:10007000020000CA9A3B000000E1F50500008096EE
:100080009800000040420F000000A0860100000020
:10009000102700000000E8030000000064000000DA
:1000A00000000A00000000000100000000002C76A3
:1000B000D888DC674F0823DFC1DFAE59E1B1B796BE
:1000C000E5E3E453C63AE651997696E8E6C284261B
:1000D000EB898C9B62ED407C6FFCEFBC9C9F40F2F7
:1000E000BAA56FA5F490055A2AF75C936B6CF96773
:1000F0006DC11BFCE0E40D47FEF520E6B500D0ED38
:10010000902E0300943577050080841E080000209F
:100110004E0A000000C80C333333330F986E12833D
:100120001141EF8D2114893BE65516CFFEE6DB1811
:10013000D1844B381BF77C1D901DA4BBE4242032D6
:1001400084725E228100C9F124ECA1E53D271124CF
:100150001FBECFE5D8E0DEBFCDBF10E0A0E6B0E027
:10016000EAE2F1E102C005900D92A83AB107D9F791
:1001700020E0A8EAB0E001C01D92A03BB207E1F781
:100180000E9411020C9493080C940000CF93C82F86
:1001900060E089E00E943F0280E00E9443038F708C
:1001A0009C2F907F682F692B80E00E94550360E0B0
:1001B0008BE00E943F028FE891E00197F1F700C0C9
:1001C000000061E08BE00E943F028FE19EE4019716
:1001D000F1F700C0000080E00E94430390E1C99F56
:1001E000900111248F70682F622B80E00E945503CC
:1001F00060E08BE00E943F028FE891E00197F1F709
:1002000000C0000061E08BE00E943F028FE39FE1AD
:100210000197F1F700C00000CF91089560E08AE0F7
:100220000E943F0261E08BE00E943F022FEF89EFC6
:1002300090E0215080409040E1F700C0000083E34F
:100240000E94C60082E30E94C60088E20E94C600A7
:1002500086E00E94C6008CE00E94C6000895CF93FD
:10026000C82F61E089E00E943F0280E00E944303C2
:100270008F709C2F907F682F692B80E00E94550320
:1002800060E08BE00E943F028FE891E00197F1F778
:1002900000C0000061E08BE00E943F028FE19EE41D
:1002A0000197F1F700C0000080E00E94430390E155
:1002B000C99F900111248F70682F622B80E00E94EB
:1002C000550360E08BE00E943F028FE891E00197C8
:1002D000F1F700C0000061E08BE00E943F028FE375
:1002E0009FE10197F1F700C00000CF9108950F93AF
:1002F0001F93CF938C01C0E003C00E942F01CF5FFA
:10030000F801EC0FF11D80818111F7CFCF911F9182
:100310000F9108958091A8009091A900A091AA0042
:10032000B091AB000196A11DB11D8093A8009093E0
:10033000A900A093AA00B093AB000895CF93DF93D8
:10034000CDB7DEB728970FB6F894DEBF0FBECDBF8E
:1003500060E08EE10E94C10261E080E00E94C10283
:100360000E940B048AE891E00E94BC0488E0E0EA65
:10037000F0E0DE01119601900D928A95E1F7CE0131
:1003800001960E940F048EB580648EBD61E080E00E
:100390000E943F0285E38A95F1F7000060E080E06B
:1003A0000E943F0208B605FEFDCF1DBC1CBC17BC59
:1003B00016BC1092A8001092A9001092AA001092E8
:1003C000AB008EB58F7B8EBD88B7806288BF08B6C4
:1003D00005FEFDCF88B7806288BF8091A80090910C
:1003E000A900A091AA00B091AB00DC019927882751
:1003F00026B537B5BC01CD01620F731F811D911D5C
:100400000E940F0528E23EE74CE85DE30E944C05A0
:1004100028960FB6F894DEBF0FBECDBFDF91CF9107
:100420000895CF93DF93CDB7DEB764970FB6F894F6
:10043000DEBF0FBECDBF0E9465030E940E01FE010C
:10044000319684E1DF011D928A95E9F70E949E01B1
:100450008E010F5F1F4F22E042E00E940A06C80192
:100460000E947701BFEF23EC89E0B150204080402B
:10047000E1F700C0000081E00E94C600E7CF982F9E
:100480009695969596958770913021F130F092303F
:10049000F1F1933009F458C00895613069F44BB319
:1004A00021E030E0B90102C0660F771F8A95E2F7BC
:1004B000CB01842B8BBB08954BB321E030E0B90115
:1004C00002C0660F771F8A95E2F7CB0180958423DF
:1004D0008BBB0895613069F448B321E030E0B90185
:1004E00002C0660F771F8A95E2F7CB01842B88BB89
:1004F000089548B321E030E0B90102C0660F771FCC
:100500008A95E2F7CB018095842388BB08956130FA
:1005100069F445B321E030E0B90102C0660F771FEE
:100520008A95E2F7CB01842B85BB089545B321E082
:1005300030E0B90102C0660F771F8A95E2F7CB0160
:100540008095842385BB0895613069F442B321E02E
:1005500030E0B90102C0660F771F8A95E2F7CB0140
:10056000842B82BB089542B321E030E0B90102C080
:10057000660F771F8A95E2F7CB018095842382BBB3
:100580000895982F9695969596958770913021F1BC
:1005900030F09230F1F1933009F458C00895613091
:1005A00069F44AB321E030E0B90102C0660F771F59
:1005B0008A95E2F7CB01842B8ABB08954AB321E0E8
:1005C00030E0B90102C0660F771F8A95E2F7CB01D0
:1005D000809584238ABB0895613069F447B321E094
:1005E00030E0B90102C0660F771F8A95E2F7CB01B0
:1005F000842B87BB089547B321E030E0B90102C0E6
:10060000660F771F8A95E2F7CB018095842387BB1D
:100610000895613069F444B321E030E0B90102C0CB
:10062000660F771F8A95E2F7CB01842B84BB089570
:1006300044B321E030E0B90102C0660F771F8A950C
:10064000E2F7CB018095842384BB0895613069F47F
:1006500041B321E030E0B90102C0660F771F8A95EF
:10066000E2F7CB01842B81BB089541B321E030E058
:10067000B90102C0660F771F8A95E2F7CB0180951A
:10068000842381BB0895813041F028F0823039F015
:10069000833039F008C08BB3089588B3089585B3CB
:1006A000089582B3089580E00895813041F028F0E4
:1006B000823039F0833039F008956BBB089568BB00
:1006C000089565BB089562BB089580E0A0C0982F8F
:1006D000969596959695282F2770913061F138F070
:1006E000923009F44CC0933009F46DC08FC0E82FEC
:1006F000F0E0EE0FFF1FE05AFF4F9081913069F458
:100700009AB341E050E0BA0102C0660F771F2A9504
:10071000E2F79B01292B2ABB79C09AB341E050E054
:10072000BA0102C0660F771F2A95E2F79B01209558
:1007300029232ABB6BC0E82FF0E0EE0FFF1FE05A21
:10074000FF4F9081913069F497B341E050E0BA01D6
:1007500002C0660F771F2A95E2F79B01292B27BB62
:1007600055C097B341E050E0BA0102C0660F771F51
:100770002A95E2F79B012095292327BB47C0E82F44
:10078000F0E0EE0FFF1FE05AFF4F9081913069F4C7
:1007900094B341E050E0BA0102C0660F771F2A957A
:1007A000E2F79B01292B24BB31C094B341E050E018
:1007B000BA0102C0660F771F2A95E2F79B012095C8
:1007C000292324BB23C0E82FF0E0EE0FFF1FE05ADF
:1007D000FF4F9081913069F491B341E050E0BA014C
:1007E00002C0660F771F2A95E2F79B01292B21BBD8
:1007F0000DC091B341E050E0BA0102C0660F771F0F
:100800002A95E2F79B012095292321BB8F5F803237
:1008100008F45DCF08958FB780688FBF0895FC01FD
:100820008081813099F028F08230E9F0833041F105
:1008300033C08FB58E7F8FBD8FB58D7F8FBD8EB549
:10084000877F8EBD8EB58F7E8EBD26C08FB58E7F85
:100850008FBD8FB58D7F8FBD8EB588608EBD8EB5F7
:100860008F7E8EBD19C08FB58E7F8FBD8FB5826094
:100870008FBD8EB588608EBD8EB580618EBD0CC07B
:100880008FB58E7F8FBD8FB582608FBD8EB5877F10
:100890008EBD8EB580618EBD8181823001F128F4DC
:1008A000882349F0813089F041C0843061F108F13A
:1008B000853099F13BC08EB58E7F8EBD8EB58D7F14
:1008C0008EBD8EB58B7F8EBD31C08EB581608EBDE5
:1008D0008EB58D7F8EBD8EB58B7F8EBD27C08EB5BC
:1008E0008E7F8EBD8EB582608EBD8EB58B7F8EBDA8
:1008F0001DC08EB581608EBD8EB582608EBD8EB5F9
:100900008B7F8EBD13C08EB58E7F8EBD8EB58D7FD5
:100910008EBD8EB584608EBD09C08EB581608EBDE2
:100920008EB58D7F8EBD8EB584608EBD8281823006
:1009300059F0833081F0811114C08FB58F7B8FBD4A
:100940008FB58F778FBD0DC08FB58F7B8FBD8FB566
:1009500080688FBD06C08FB580648FBD8FB58068FD
:100960008FBD29B79781892F90E0880F991F880F35
:10097000991F822B89BF08959093AD008093AC009E
:1009800008951F920F920FB60F9211242F933F9349
:100990004F935F936F937F938F939F93AF93BF9387
:1009A000EF93FF93E091AE00F091AF000995FF91B6
:1009B000EF91BF91AF919F918F917F916F915F91D7
:1009C0004F913F912F910F900FBE0F901F90189550
:1009D0001F920F920FB60F9211242F933F934F93B4
:1009E0005F936F937F938F939F93AF93BF93EF9397
:1009F000FF93E091AC00F091AD000995FF91EF916C
:100A0000BF91AF919F918F917F916F915F914F9126
:100A10003F912F910F900FBE0F901F901895E89463
:100A200009C097FB3EF490958095709561957F4F36
:100A30008F4F9F4F9923A9F0F92F96E9BB279395E4
:100A4000F695879577956795B795F111F8CFFAF4F4
:100A5000BB0F11F460FF1BC06F5F7F4F8F4F9F4F25
:100A600016C0882311F096E911C0772321F09EE883
:100A7000872F762F05C0662371F096E8862F70E0E9
:100A800060E02AF09A95660F771F881FDAF7880FC3
:100A90009695879597F908950E945F050C94D00567
:100AA0000E94C20538F00E94C90520F0952311F07C
:100AB0000C94B9050C94BF0511240C9404060E94F3
:100AC000E10570F3959FC1F3950F50E0551F629FAC
:100AD000F001729FBB27F00DB11D639FAA27F00D97
:100AE000B11DAA1F649F6627B00DA11D661F829FBE
:100AF0002227B00DA11D621F739FB00DA11D621FA3
:100B0000839FA00D611D221F749F3327A00D611DBF
:100B1000231F849F600D211D822F762F6A2F1124A1
:100B20009F5750409AF0F1F088234AF0EE0FFF1FD4
:100B3000BB1F661F771F881F91505040A9F79E3F2B
:100B4000510580F00C94B9050C9404065F3FE4F362
:100B5000983ED4F3869577956795B795F795E79581
:100B60009F5FC1F7FE2B880F911D9695879597F98A
:100B7000089597F99F6780E870E060E008959FEF1F
:100B800080EC089500240A94161617061806090624
:100B9000089500240A9412161306140605060895F3
:100BA000092E0394000C11F4882352F0BB0F40F47B
:100BB000BF2B11F460FF04C06F5F7F4F8F4F9F4FBB
:100BC000089557FD9058440F551F59F05F3F71F03D
:100BD0004795880F97FB991F61F09F3F79F08795A4
:100BE0000895121613061406551FF2CF4695F1DF2D
:100BF00008C0161617061806991FF1CF86957105BD
:100C0000610508940895E894BB2766277727CB01F0
:100C100097F90895EF920F931F93CF93DF93E80115
:100C200047FD02C034E001C034E1042E000C550B36
:100C300057FF03C0519541955109E32E022F242FF0
:100C4000AE010E942A06CE01DF91CF911F910F9134
:100C5000EF900895A9E0B0E0E0E3F6E00C946208BC
:100C60006A01122FB02E2BE3201720F0FF24F394FB
:100C7000F00E02C02CE3F22E0F2D27E0AE014F5FE5
:100C80005F4F0E948407BC014981842F89708130A5
:100C900031F0E1FC06C0E0FE06C090E205C09DE236
:100CA00003C09BE201C090E05E2D507143FF3CC049
:100CB000911102C083E001C084E0811718F4212F54
:100CC000281B01C020E051110BC0F601822F30E239
:100CD000882319F031938150FBCFC20ED11C20E044
:100CE000992329F0D6019C93F60131966F01C60134
:100CF0000396E2FE0AC03EE4D6013C9341E411961D
:100D00004C93119712963C9306C03EE6F601308351
:100D100041E641833283FC01322F40E2332309F460
:100D200042C041933150FACF42FF44C0911102C0FA
:100D300083E001C084E0811718F4212F281B01C033
:100D400020E051110BC0F601822F30E2882319F008
:100D500031938150FBCFC20ED11C20E0992329F0A2
:100D6000D6019C93F60131966F01C6010396E2FE0F
:100D70000BC039E4D6013C933EE411963C931197A5
:100D800036E412963C9307C039E6F60130833EE61E
:100D9000318336E63283FC01322F40E2332319F0EF
:100DA00041933150FBCFFC01E20FF11D10828EEF19
:100DB0009FEFA6C021E030E0911102C020E030E0BA
:100DC000161617061CF4FB01319602C0E1E0F0E0B4
:100DD0002E0F3F1FBB2021F0EB2DF0E0319602C01B
:100DE000E0E0F0E02E0F3F1FE12FF0E02E173F076D
:100DF0001CF4121B212F01C020E08E2D887159F4A4
:100E0000F601822F30E2882319F031938150FBCF15
:100E1000C20ED11C20E0992329F0D6019C93F60143
:100E200031966F0151110BC0F601822F90E3882398
:100E300019F091938150FBCFC20ED11C20E00F2DF1
:100E4000060F9A81342F307144FF03C0913309F4A7
:100E50000150101624F4093018F008E001C001E038
:100E6000AB0177FF02C040E050E0FB01E41BF50B53
:100E7000A1E0B0E0AC0FBD1FEA0FFB1F8EE2A82E71
:100E80004B01801A91080B2D10E011950195110965
:100E90004F3FBFEF5B0721F4D601AC9211966D0175
:100EA000641775072CF08416950614F4818101C02F
:100EB00080E3415051093196D60111967D014017CA
:100EC000510724F0D6018C936701E2CF64177507B0
:100ED00039F4963320F4953319F4311101C081E3CC
:100EE000F6018083F701822F90E2882319F0919315
:100EF0008150FBCFF701E20FF11D108280E090E0FE
:100F00002996ECE00C947E08283008F027E033277F
:100F1000DA01990F311D87FD916000966105710519
:100F200039F432602E5F3D9330E32A95E1F708955E
:100F30009F3F30F080387105610509F03C5F3C5FF0
:100F40003D93913008F08068911DDF93CF931F93FC
:100F50000F93FF92EF92192F987F9695E92F969510
:100F60009695E90FFF27E255FF4F99273327EE2487
:100F7000FF24A701E70105900894079428F4360F91
:100F8000E71EF81E491F511D660F771F881F991F06
:100F90000694A1F70590079428F4E70EF81E491F60
:100FA000561FC11D770F881F991F661F0694A1F752
:100FB0000590079428F4F80E491F561FC71FD11D2E
:100FC000880F991F661F771F0694A1F70590079455
:100FD00020F4490F561FC71FD81F990F661F771F90
:100FE000881F0694A9F784911095177041F0D69543
:100FF000C79557954795F794E7941A95C1F7E4E597
:10100000F0E0689415901591359165919591059052
:101010007FE27395E118F10A430B560BC90BD00917
:10102000C0F7E10CF11E431F561FC91FD01D7EF4EF
:10103000703311F48A95E6CFE894015030F0080F30
:101040000AF40027021708F4202F2395022F7A3381
:1010500028F079E37D932A95E9F710C07D932A95CE
:1010600089F6069497956795379517951794E11823
:10107000F10A430B560BC90BD00998F023957E91CA
:1010800073957A3308F070E37C932013B8F77E9160
:1010900070617D9330F0839571E37D9370E32A95C1
:1010A000E1F71124EF90FF900F911F91CF91DF9105
:1010B000992787FD909508952F923F924F925F92C6
:1010C0006F927F928F929F92AF92BF92CF92DF9258
:1010D000EF92FF920F931F93CF93DF93CDB7DEB7BD
:1010E000CA1BDB0B0FB6F894DEBF0FBECDBF099451
:1010F0002A88398848885F846E847D848C849B84A8
:10110000AA84B984C884DF80EE80FD800C811B81B5
:10111000AA81B981CE0FD11D0FB6F894DEBF0FBEE4
:0A112000CDBFED010895F894FFCF54
:10112A0001010101010101010101010101010101A5
:10113A000101010101010101010101010101010195
:10114A000101010101010101010101010101010185
:10115A000101010101010101010101010101010175
:08116A00000300000000000179
:00000001FF
